{
  "_format": "hh-sol-artifact-1",
  "contractName": "Event",
  "sourceName": "contracts/Event.sol",
  "abi": [
    {
      "inputs": [
        {
          "internalType": "string",
          "name": "_eventName",
          "type": "string"
        },
        {
          "internalType": "string",
          "name": "_eventDate",
          "type": "string"
        },
        {
          "internalType": "uint256",
          "name": "_ticketPrice",
          "type": "uint256"
        },
        {
          "internalType": "uint256",
          "name": "_ticketQuantity",
          "type": "uint256"
        },
        {
          "internalType": "string",
          "name": "_artistName",
          "type": "string"
        },
        {
          "internalType": "uint256",
          "name": "_royalty",
          "type": "uint256"
        }
      ],
      "stateMutability": "nonpayable",
      "type": "constructor"
    },
    {
      "anonymous": false,
      "inputs": [
        {
          "indexed": true,
          "internalType": "address",
          "name": "owner",
          "type": "address"
        },
        {
          "indexed": true,
          "internalType": "address",
          "name": "approved",
          "type": "address"
        },
        {
          "indexed": true,
          "internalType": "uint256",
          "name": "tokenId",
          "type": "uint256"
        }
      ],
      "name": "Approval",
      "type": "event"
    },
    {
      "anonymous": false,
      "inputs": [
        {
          "indexed": true,
          "internalType": "address",
          "name": "owner",
          "type": "address"
        },
        {
          "indexed": true,
          "internalType": "address",
          "name": "operator",
          "type": "address"
        },
        {
          "indexed": false,
          "internalType": "bool",
          "name": "approved",
          "type": "bool"
        }
      ],
      "name": "ApprovalForAll",
      "type": "event"
    },
    {
      "anonymous": false,
      "inputs": [
        {
          "indexed": true,
          "internalType": "address",
          "name": "from",
          "type": "address"
        },
        {
          "indexed": true,
          "internalType": "address",
          "name": "to",
          "type": "address"
        },
        {
          "indexed": true,
          "internalType": "uint256",
          "name": "tokenId",
          "type": "uint256"
        }
      ],
      "name": "Transfer",
      "type": "event"
    },
    {
      "inputs": [],
      "name": "TYPE1",
      "outputs": [
        {
          "internalType": "uint256",
          "name": "",
          "type": "uint256"
        }
      ],
      "stateMutability": "view",
      "type": "function"
    },
    {
      "inputs": [
        {
          "internalType": "address",
          "name": "to",
          "type": "address"
        },
        {
          "internalType": "uint256",
          "name": "tokenId",
          "type": "uint256"
        }
      ],
      "name": "approve",
      "outputs": [],
      "stateMutability": "nonpayable",
      "type": "function"
    },
    {
      "inputs": [],
      "name": "artistName",
      "outputs": [
        {
          "internalType": "string",
          "name": "",
          "type": "string"
        }
      ],
      "stateMutability": "view",
      "type": "function"
    },
    {
      "inputs": [
        {
          "internalType": "address",
          "name": "owner",
          "type": "address"
        }
      ],
      "name": "balanceOf",
      "outputs": [
        {
          "internalType": "uint256",
          "name": "",
          "type": "uint256"
        }
      ],
      "stateMutability": "view",
      "type": "function"
    },
    {
      "inputs": [
        {
          "internalType": "uint256",
          "name": "nftId",
          "type": "uint256"
        }
      ],
      "name": "buy",
      "outputs": [],
      "stateMutability": "payable",
      "type": "function"
    },
    {
      "inputs": [],
      "name": "eventCreator",
      "outputs": [
        {
          "internalType": "address",
          "name": "",
          "type": "address"
        }
      ],
      "stateMutability": "view",
      "type": "function"
    },
    {
      "inputs": [],
      "name": "eventDate",
      "outputs": [
        {
          "internalType": "string",
          "name": "",
          "type": "string"
        }
      ],
      "stateMutability": "view",
      "type": "function"
    },
    {
      "inputs": [],
      "name": "eventName",
      "outputs": [
        {
          "internalType": "string",
          "name": "",
          "type": "string"
        }
      ],
      "stateMutability": "view",
      "type": "function"
    },
    {
      "inputs": [
        {
          "internalType": "uint256",
          "name": "tokenId",
          "type": "uint256"
        }
      ],
      "name": "getApproved",
      "outputs": [
        {
          "internalType": "address",
          "name": "",
          "type": "address"
        }
      ],
      "stateMutability": "view",
      "type": "function"
    },
    {
      "inputs": [
        {
          "internalType": "address",
          "name": "owner",
          "type": "address"
        },
        {
          "internalType": "address",
          "name": "operator",
          "type": "address"
        }
      ],
      "name": "isApprovedForAll",
      "outputs": [
        {
          "internalType": "bool",
          "name": "",
          "type": "bool"
        }
      ],
      "stateMutability": "view",
      "type": "function"
    },
    {
      "inputs": [
        {
          "internalType": "uint256",
          "name": "nftId",
          "type": "uint256"
        }
      ],
      "name": "listForSale",
      "outputs": [],
      "stateMutability": "nonpayable",
      "type": "function"
    },
    {
      "inputs": [],
      "name": "name",
      "outputs": [
        {
          "internalType": "string",
          "name": "",
          "type": "string"
        }
      ],
      "stateMutability": "view",
      "type": "function"
    },
    {
      "inputs": [
        {
          "internalType": "uint256",
          "name": "",
          "type": "uint256"
        }
      ],
      "name": "onSale",
      "outputs": [
        {
          "internalType": "uint256",
          "name": "",
          "type": "uint256"
        }
      ],
      "stateMutability": "view",
      "type": "function"
    },
    {
      "inputs": [
        {
          "internalType": "uint256",
          "name": "tokenId",
          "type": "uint256"
        }
      ],
      "name": "ownerOf",
      "outputs": [
        {
          "internalType": "address",
          "name": "",
          "type": "address"
        }
      ],
      "stateMutability": "view",
      "type": "function"
    },
    {
      "inputs": [],
      "name": "royalty",
      "outputs": [
        {
          "internalType": "uint256",
          "name": "",
          "type": "uint256"
        }
      ],
      "stateMutability": "view",
      "type": "function"
    },
    {
      "inputs": [
        {
          "internalType": "address",
          "name": "from",
          "type": "address"
        },
        {
          "internalType": "address",
          "name": "to",
          "type": "address"
        },
        {
          "internalType": "uint256",
          "name": "tokenId",
          "type": "uint256"
        }
      ],
      "name": "safeTransferFrom",
      "outputs": [],
      "stateMutability": "nonpayable",
      "type": "function"
    },
    {
      "inputs": [
        {
          "internalType": "address",
          "name": "from",
          "type": "address"
        },
        {
          "internalType": "address",
          "name": "to",
          "type": "address"
        },
        {
          "internalType": "uint256",
          "name": "tokenId",
          "type": "uint256"
        },
        {
          "internalType": "bytes",
          "name": "data",
          "type": "bytes"
        }
      ],
      "name": "safeTransferFrom",
      "outputs": [],
      "stateMutability": "nonpayable",
      "type": "function"
    },
    {
      "inputs": [
        {
          "internalType": "address",
          "name": "operator",
          "type": "address"
        },
        {
          "internalType": "bool",
          "name": "approved",
          "type": "bool"
        }
      ],
      "name": "setApprovalForAll",
      "outputs": [],
      "stateMutability": "nonpayable",
      "type": "function"
    },
    {
      "inputs": [
        {
          "internalType": "bytes4",
          "name": "interfaceId",
          "type": "bytes4"
        }
      ],
      "name": "supportsInterface",
      "outputs": [
        {
          "internalType": "bool",
          "name": "",
          "type": "bool"
        }
      ],
      "stateMutability": "view",
      "type": "function"
    },
    {
      "inputs": [],
      "name": "symbol",
      "outputs": [
        {
          "internalType": "string",
          "name": "",
          "type": "string"
        }
      ],
      "stateMutability": "view",
      "type": "function"
    },
    {
      "inputs": [],
      "name": "ticketPrice",
      "outputs": [
        {
          "internalType": "uint256",
          "name": "",
          "type": "uint256"
        }
      ],
      "stateMutability": "view",
      "type": "function"
    },
    {
      "inputs": [],
      "name": "ticketQuantity",
      "outputs": [
        {
          "internalType": "uint256",
          "name": "",
          "type": "uint256"
        }
      ],
      "stateMutability": "view",
      "type": "function"
    },
    {
      "inputs": [
        {
          "internalType": "uint256",
          "name": "tokenId",
          "type": "uint256"
        }
      ],
      "name": "tokenURI",
      "outputs": [
        {
          "internalType": "string",
          "name": "",
          "type": "string"
        }
      ],
      "stateMutability": "view",
      "type": "function"
    },
    {
      "inputs": [
        {
          "internalType": "address",
          "name": "from",
          "type": "address"
        },
        {
          "internalType": "address",
          "name": "to",
          "type": "address"
        },
        {
          "internalType": "uint256",
          "name": "tokenId",
          "type": "uint256"
        }
      ],
      "name": "transferFrom",
      "outputs": [],
      "stateMutability": "nonpayable",
      "type": "function"
    }
  ],
  "bytecode": "0x60806040523480156200001157600080fd5b5060405162001d8338038062001d838339810160408190526200003491620001b1565b60405180604001604052806006815260200165151a58dad95d60d21b815250604051806040016040528060038152602001621494d360ea1b8152508160009081620000809190620002ed565b5060016200008f8282620002ed565b5060069150620000a290508782620002ed565b506007620000b18682620002ed565b5060088490556009839055600a620000ca8382620002ed565b50600d555050600c80546001600160a01b0319163317905550620003b9915050565b634e487b7160e01b600052604160045260246000fd5b600082601f8301126200011457600080fd5b81516001600160401b0380821115620001315762000131620000ec565b604051601f8301601f19908116603f011681019082821181831017156200015c576200015c620000ec565b816040528381526020925086838588010111156200017957600080fd5b600091505b838210156200019d57858201830151818301840152908201906200017e565b600093810190920192909252949350505050565b60008060008060008060c08789031215620001cb57600080fd5b86516001600160401b0380821115620001e357600080fd5b620001f18a838b0162000102565b975060208901519150808211156200020857600080fd5b620002168a838b0162000102565b9650604089015195506060890151945060808901519150808211156200023b57600080fd5b506200024a89828a0162000102565b92505060a087015190509295509295509295565b600181811c908216806200027357607f821691505b6020821081036200029457634e487b7160e01b600052602260045260246000fd5b50919050565b601f821115620002e857600081815260208120601f850160051c81016020861015620002c35750805b601f850160051c820191505b81811015620002e457828155600101620002cf565b5050505b505050565b81516001600160401b03811115620003095762000309620000ec565b62000321816200031a84546200025e565b846200029a565b602080601f831160018114620003595760008415620003405750858301515b600019600386901b1c1916600185901b178555620002e4565b600085815260208120601f198616915b828110156200038a5788860151825594840194600190910190840162000369565b5085821015620003a95787850151600019600388901b60f8161c191681555b5050505050600190811b01905550565b6119ba80620003c96000396000f3fe60806040526004361061014b5760003560e01c806367cedeef116100b6578063b88d4fde1161006f578063b88d4fde14610384578063c7857fb5146103a4578063c87b56dd146103c4578063d96a094a146103e4578063e985e9c5146103f7578063ec8a06551461041757600080fd5b806367cedeef146102e557806370a08231146102fa5780638043c9c01461031a57806395d89b411461032f578063a22cb46514610344578063b43a76f11461036457600080fd5b806329ee566c1161010857806329ee566c1461024557806342842e0e1461025b5780634bfbe5df1461027b5780634ec82aac146102905780635b2f515b146102b05780636352211e146102c557600080fd5b806301ffc9a71461015057806306fdde0314610185578063081812fc146101a7578063095ea7b3146101df5780631209b1f61461020157806323b872dd14610225575b600080fd5b34801561015c57600080fd5b5061017061016b36600461148c565b61042d565b60405190151581526020015b60405180910390f35b34801561019157600080fd5b5061019a61043e565b60405161017c91906114f9565b3480156101b357600080fd5b506101c76101c236600461150c565b6104d0565b6040516001600160a01b03909116815260200161017c565b3480156101eb57600080fd5b506101ff6101fa366004611541565b6104f7565b005b34801561020d57600080fd5b5061021760085481565b60405190815260200161017c565b34801561023157600080fd5b506101ff61024036600461156b565b610611565b34801561025157600080fd5b50610217600d5481565b34801561026757600080fd5b506101ff61027636600461156b565b610642565b34801561028757600080fd5b5061019a61065d565b34801561029c57600080fd5b50600c546101c7906001600160a01b031681565b3480156102bc57600080fd5b5061019a6106eb565b3480156102d157600080fd5b506101c76102e036600461150c565b6106f8565b3480156102f157600080fd5b50610217600081565b34801561030657600080fd5b506102176103153660046115a7565b610758565b34801561032657600080fd5b5061019a6107de565b34801561033b57600080fd5b5061019a6107eb565b34801561035057600080fd5b506101ff61035f3660046115c2565b6107fa565b34801561037057600080fd5b5061021761037f36600461150c565b610809565b34801561039057600080fd5b506101ff61039f366004611614565b61082a565b3480156103b057600080fd5b506101ff6103bf36600461150c565b610862565b3480156103d057600080fd5b5061019a6103df36600461150c565b610903565b6101ff6103f236600461150c565b610977565b34801561040357600080fd5b506101706104123660046116f0565b610b64565b34801561042357600080fd5b5061021760095481565b600061043882610b92565b92915050565b60606000805461044d90611723565b80601f016020809104026020016040519081016040528092919081815260200182805461047990611723565b80156104c65780601f1061049b576101008083540402835291602001916104c6565b820191906000526020600020905b8154815290600101906020018083116104a957829003601f168201915b5050505050905090565b60006104db82610be2565b506000908152600460205260409020546001600160a01b031690565b6000610502826106f8565b9050806001600160a01b0316836001600160a01b0316036105745760405162461bcd60e51b815260206004820152602160248201527f4552433732313a20617070726f76616c20746f2063757272656e74206f776e656044820152603960f91b60648201526084015b60405180910390fd5b336001600160a01b038216148061059057506105908133610b64565b6106025760405162461bcd60e51b815260206004820152603d60248201527f4552433732313a20617070726f76652063616c6c6572206973206e6f7420746f60448201527f6b656e206f776e6572206f7220617070726f76656420666f7220616c6c000000606482015260840161056b565b61060c8383610c41565b505050565b61061b3382610caf565b6106375760405162461bcd60e51b815260040161056b9061175d565b61060c838383610d0e565b61060c8383836040518060200160405280600081525061082a565b6007805461066a90611723565b80601f016020809104026020016040519081016040528092919081815260200182805461069690611723565b80156106e35780601f106106b8576101008083540402835291602001916106e3565b820191906000526020600020905b8154815290600101906020018083116106c657829003601f168201915b505050505081565b600a805461066a90611723565b6000818152600260205260408120546001600160a01b0316806104385760405162461bcd60e51b8152602060048201526018602482015277115490cdcc8c4e881a5b9d985b1a59081d1bdad95b88125160421b604482015260640161056b565b60006001600160a01b0382166107c25760405162461bcd60e51b815260206004820152602960248201527f4552433732313a2061646472657373207a65726f206973206e6f7420612076616044820152683634b21037bbb732b960b91b606482015260840161056b565b506001600160a01b031660009081526003602052604090205490565b6006805461066a90611723565b60606001805461044d90611723565b610805338383610e72565b5050565b600b818154811061081957600080fd5b600091825260209091200154905081565b6108343383610caf565b6108505760405162461bcd60e51b815260040161056b9061175d565b61085c84848484610f40565b50505050565b3361086c826106f8565b6001600160a01b0316146108ce5760405162461bcd60e51b8152602060048201526024808201527f596f7520617265206e6f7420746865206f776e6572206f66207468697320746960448201526318dad95d60e21b606482015260840161056b565b600b80546001810182556000919091527f0175b7a638427703f0dbe7bb9bbf987a2551717b34e79f33b5b1008d1fa01db90155565b606061090e82610be2565b600061092560408051602081019091526000815290565b905060008151116109455760405180602001604052806000815250610970565b8061094f84610f73565b6040516020016109609291906117aa565b6040516020818303038152906040525b9392505050565b600060095411806109895750600b5415155b6109d55760405162461bcd60e51b815260206004820152601960248201527f4e6f206d6f7265207469636b65747320617661696c61626c6500000000000000604482015260640161056b565b600854341015610a275760405162461bcd60e51b815260206004820152601760248201527f496e73756666696369656e742066756e64732073656e74000000000000000000604482015260640161056b565b60095415610ad657600160096000828254610a4291906117ef565b9091555050600c546008546040516001600160a01b039092169181156108fc0291906000818181858888f19350505050158015610a83573d6000803e3d6000fd5b50610a8e3382611006565b600854341115610ad35760085433906108fc90610aab90346117ef565b6040518115909202916000818181858888f19350505050158015610805573d6000803e3d6000fd5b50565b6000600b600081548110610aec57610aec611802565b90600052602060002001549050610b01611020565b600c546001600160a01b03166108fc610b186110bc565b6040518115909202916000818181858888f19350505050158015610b40573d6000803e3d6000fd5b50610805610b4d826106f8565b338360405180602001604052806000815250610f40565b6001600160a01b03918216600090815260056020908152604080832093909416825291909152205460ff1690565b60006001600160e01b031982166380ac58cd60e01b1480610bc357506001600160e01b03198216635b5e139f60e01b145b8061043857506301ffc9a760e01b6001600160e01b0319831614610438565b6000818152600260205260409020546001600160a01b0316610ad35760405162461bcd60e51b8152602060048201526018602482015277115490cdcc8c4e881a5b9d985b1a59081d1bdad95b88125160421b604482015260640161056b565b600081815260046020526040902080546001600160a01b0319166001600160a01b0384169081179091558190610c76826106f8565b6001600160a01b03167f8c5be1e5ebec7d5bd14f71427d1e84f3dd0314c0f7b2291e5b200ac8c7c3b92560405160405180910390a45050565b600080610cbb836106f8565b9050806001600160a01b0316846001600160a01b03161480610ce25750610ce28185610b64565b80610d065750836001600160a01b0316610cfb846104d0565b6001600160a01b0316145b949350505050565b826001600160a01b0316610d21826106f8565b6001600160a01b031614610d475760405162461bcd60e51b815260040161056b90611818565b6001600160a01b038216610da95760405162461bcd60e51b8152602060048201526024808201527f4552433732313a207472616e7366657220746f20746865207a65726f206164646044820152637265737360e01b606482015260840161056b565b826001600160a01b0316610dbc826106f8565b6001600160a01b031614610de25760405162461bcd60e51b815260040161056b90611818565b600081815260046020908152604080832080546001600160a01b03199081169091556001600160a01b0387811680865260038552838620805460001901905590871680865283862080546001019055868652600290945282852080549092168417909155905184937fddf252ad1be2c89b69c2b068fc378daa952ba7f163c4a11628f55a4df523b3ef91a4505050565b816001600160a01b0316836001600160a01b031603610ed35760405162461bcd60e51b815260206004820152601960248201527f4552433732313a20617070726f766520746f2063616c6c657200000000000000604482015260640161056b565b6001600160a01b03838116600081815260056020908152604080832094871680845294825291829020805460ff191686151590811790915591519182527f17307eab39ab6107e8899845ad3d59bd9653f200f220920489ca2b5937696c31910160405180910390a3505050565b610f4b848484610d0e565b610f57848484846110df565b61085c5760405162461bcd60e51b815260040161056b9061185d565b60606000610f80836111e0565b600101905060008167ffffffffffffffff811115610fa057610fa06115fe565b6040519080825280601f01601f191660200182016040528015610fca576020820181803683370190505b5090508181016020015b600019016f181899199a1a9b1b9c1cb0b131b232b360811b600a86061a8153600a8504945084610fd457509392505050565b6108058282604051806020016040528060008152506112b8565b60005b600b54611032906001906117ef565b81101561109257600b6110468260016118af565b8154811061105657611056611802565b9060005260206000200154600b828154811061107457611074611802565b6000918252602090912001558061108a816118c2565b915050611023565b50600b8054806110a4576110a46118db565b60019003818190600052602060002001600090559055565b60006064600d546008546110d091906118f1565b6110da9190611908565b905090565b60006001600160a01b0384163b156111d557604051630a85bd0160e11b81526001600160a01b0385169063150b7a029061112390339089908890889060040161192a565b6020604051808303816000875af192505050801561115e575060408051601f3d908101601f1916820190925261115b91810190611967565b60015b6111bb573d80801561118c576040519150601f19603f3d011682016040523d82523d6000602084013e611191565b606091505b5080516000036111b35760405162461bcd60e51b815260040161056b9061185d565b805181602001fd5b6001600160e01b031916630a85bd0160e11b149050610d06565b506001949350505050565b60008072184f03e93ff9f4daa797ed6e38ed64bf6a1f0160401b831061121f5772184f03e93ff9f4daa797ed6e38ed64bf6a1f0160401b830492506040015b6d04ee2d6d415b85acef8100000000831061124b576d04ee2d6d415b85acef8100000000830492506020015b662386f26fc10000831061126957662386f26fc10000830492506010015b6305f5e1008310611281576305f5e100830492506008015b612710831061129557612710830492506004015b606483106112a7576064830492506002015b600a83106104385760010192915050565b6112c283836112eb565b6112cf60008484846110df565b61060c5760405162461bcd60e51b815260040161056b9061185d565b6001600160a01b0382166113415760405162461bcd60e51b815260206004820181905260248201527f4552433732313a206d696e7420746f20746865207a65726f2061646472657373604482015260640161056b565b6000818152600260205260409020546001600160a01b0316156113a65760405162461bcd60e51b815260206004820152601c60248201527f4552433732313a20746f6b656e20616c7265616479206d696e74656400000000604482015260640161056b565b6000818152600260205260409020546001600160a01b03161561140b5760405162461bcd60e51b815260206004820152601c60248201527f4552433732313a20746f6b656e20616c7265616479206d696e74656400000000604482015260640161056b565b6001600160a01b038216600081815260036020908152604080832080546001019055848352600290915280822080546001600160a01b0319168417905551839291907fddf252ad1be2c89b69c2b068fc378daa952ba7f163c4a11628f55a4df523b3ef908290a45050565b6001600160e01b031981168114610ad357600080fd5b60006020828403121561149e57600080fd5b813561097081611476565b60005b838110156114c45781810151838201526020016114ac565b50506000910152565b600081518084526114e58160208601602086016114a9565b601f01601f19169290920160200192915050565b60208152600061097060208301846114cd565b60006020828403121561151e57600080fd5b5035919050565b80356001600160a01b038116811461153c57600080fd5b919050565b6000806040838503121561155457600080fd5b61155d83611525565b946020939093013593505050565b60008060006060848603121561158057600080fd5b61158984611525565b925061159760208501611525565b9150604084013590509250925092565b6000602082840312156115b957600080fd5b61097082611525565b600080604083850312156115d557600080fd5b6115de83611525565b9150602083013580151581146115f357600080fd5b809150509250929050565b634e487b7160e01b600052604160045260246000fd5b6000806000806080858703121561162a57600080fd5b61163385611525565b935061164160208601611525565b925060408501359150606085013567ffffffffffffffff8082111561166557600080fd5b818701915087601f83011261167957600080fd5b81358181111561168b5761168b6115fe565b604051601f8201601f19908116603f011681019083821181831017156116b3576116b36115fe565b816040528281528a60208487010111156116cc57600080fd5b82602086016020830137600060208483010152809550505050505092959194509250565b6000806040838503121561170357600080fd5b61170c83611525565b915061171a60208401611525565b90509250929050565b600181811c9082168061173757607f821691505b60208210810361175757634e487b7160e01b600052602260045260246000fd5b50919050565b6020808252602d908201527f4552433732313a2063616c6c6572206973206e6f7420746f6b656e206f776e6560408201526c1c881bdc88185c1c1c9bdd9959609a1b606082015260800190565b600083516117bc8184602088016114a9565b8351908301906117d08183602088016114a9565b01949350505050565b634e487b7160e01b600052601160045260246000fd5b81810381811115610438576104386117d9565b634e487b7160e01b600052603260045260246000fd5b60208082526025908201527f4552433732313a207472616e736665722066726f6d20696e636f72726563742060408201526437bbb732b960d91b606082015260800190565b60208082526032908201527f4552433732313a207472616e7366657220746f206e6f6e20455243373231526560408201527131b2b4bb32b91034b6b83632b6b2b73a32b960711b606082015260800190565b80820180821115610438576104386117d9565b6000600182016118d4576118d46117d9565b5060010190565b634e487b7160e01b600052603160045260246000fd5b8082028115828204841417610438576104386117d9565b60008261192557634e487b7160e01b600052601260045260246000fd5b500490565b6001600160a01b038581168252841660208201526040810183905260806060820181905260009061195d908301846114cd565b9695505050505050565b60006020828403121561197957600080fd5b81516109708161147656fea2646970667358221220859ebfa6806e10477b7a472a9986b6efc5e71aee0030d8aeaec822d9d7b25e7e64736f6c63430008110033",
  "linkReferences": {},
  "deployedLinkReferences": {}
}