{
  "_format": "hh-sol-artifact-1",
  "contractName": "Event",
  "sourceName": "contracts/Event.sol",
  "abi": [
    {
      "inputs": [
        {
          "internalType": "string",
          "name": "_eventName",
          "type": "string"
        },
        {
          "internalType": "string",
          "name": "_eventDate",
          "type": "string"
        },
        {
          "internalType": "uint256",
          "name": "_ticketPrice",
          "type": "uint256"
        },
        {
          "internalType": "uint256",
          "name": "_ticketQuantity",
          "type": "uint256"
        },
        {
          "internalType": "string",
          "name": "_artistName",
          "type": "string"
        },
        {
          "internalType": "uint256",
          "name": "_royalty",
          "type": "uint256"
        }
      ],
      "stateMutability": "nonpayable",
      "type": "constructor"
    },
    {
      "anonymous": false,
      "inputs": [
        {
          "indexed": true,
          "internalType": "address",
          "name": "owner",
          "type": "address"
        },
        {
          "indexed": true,
          "internalType": "address",
          "name": "approved",
          "type": "address"
        },
        {
          "indexed": true,
          "internalType": "uint256",
          "name": "tokenId",
          "type": "uint256"
        }
      ],
      "name": "Approval",
      "type": "event"
    },
    {
      "anonymous": false,
      "inputs": [
        {
          "indexed": true,
          "internalType": "address",
          "name": "owner",
          "type": "address"
        },
        {
          "indexed": true,
          "internalType": "address",
          "name": "operator",
          "type": "address"
        },
        {
          "indexed": false,
          "internalType": "bool",
          "name": "approved",
          "type": "bool"
        }
      ],
      "name": "ApprovalForAll",
      "type": "event"
    },
    {
      "anonymous": false,
      "inputs": [
        {
          "indexed": true,
          "internalType": "address",
          "name": "from",
          "type": "address"
        },
        {
          "indexed": true,
          "internalType": "address",
          "name": "to",
          "type": "address"
        },
        {
          "indexed": true,
          "internalType": "uint256",
          "name": "tokenId",
          "type": "uint256"
        }
      ],
      "name": "Transfer",
      "type": "event"
    },
    {
      "inputs": [],
      "name": "TYPE1",
      "outputs": [
        {
          "internalType": "uint256",
          "name": "",
          "type": "uint256"
        }
      ],
      "stateMutability": "view",
      "type": "function"
    },
    {
      "inputs": [
        {
          "internalType": "address",
          "name": "to",
          "type": "address"
        },
        {
          "internalType": "uint256",
          "name": "tokenId",
          "type": "uint256"
        }
      ],
      "name": "approve",
      "outputs": [],
      "stateMutability": "nonpayable",
      "type": "function"
    },
    {
      "inputs": [],
      "name": "artistName",
      "outputs": [
        {
          "internalType": "string",
          "name": "",
          "type": "string"
        }
      ],
      "stateMutability": "view",
      "type": "function"
    },
    {
      "inputs": [
        {
          "internalType": "address",
          "name": "owner",
          "type": "address"
        }
      ],
      "name": "balanceOf",
      "outputs": [
        {
          "internalType": "uint256",
          "name": "",
          "type": "uint256"
        }
      ],
      "stateMutability": "view",
      "type": "function"
    },
    {
      "inputs": [],
      "name": "buy",
      "outputs": [],
      "stateMutability": "payable",
      "type": "function"
    },
    {
      "inputs": [],
      "name": "eventCreator",
      "outputs": [
        {
          "internalType": "address",
          "name": "",
          "type": "address"
        }
      ],
      "stateMutability": "view",
      "type": "function"
    },
    {
      "inputs": [],
      "name": "eventDate",
      "outputs": [
        {
          "internalType": "string",
          "name": "",
          "type": "string"
        }
      ],
      "stateMutability": "view",
      "type": "function"
    },
    {
      "inputs": [],
      "name": "eventName",
      "outputs": [
        {
          "internalType": "string",
          "name": "",
          "type": "string"
        }
      ],
      "stateMutability": "view",
      "type": "function"
    },
    {
      "inputs": [
        {
          "internalType": "uint256",
          "name": "tokenId",
          "type": "uint256"
        }
      ],
      "name": "getApproved",
      "outputs": [
        {
          "internalType": "address",
          "name": "",
          "type": "address"
        }
      ],
      "stateMutability": "view",
      "type": "function"
    },
    {
      "inputs": [
        {
          "internalType": "address",
          "name": "owner",
          "type": "address"
        },
        {
          "internalType": "address",
          "name": "operator",
          "type": "address"
        }
      ],
      "name": "isApprovedForAll",
      "outputs": [
        {
          "internalType": "bool",
          "name": "",
          "type": "bool"
        }
      ],
      "stateMutability": "view",
      "type": "function"
    },
    {
      "inputs": [
        {
          "internalType": "uint256",
          "name": "nftId",
          "type": "uint256"
        }
      ],
      "name": "listForSale",
      "outputs": [],
      "stateMutability": "nonpayable",
      "type": "function"
    },
    {
      "inputs": [],
      "name": "name",
      "outputs": [
        {
          "internalType": "string",
          "name": "",
          "type": "string"
        }
      ],
      "stateMutability": "view",
      "type": "function"
    },
    {
      "inputs": [],
      "name": "nftId",
      "outputs": [
        {
          "internalType": "uint256",
          "name": "",
          "type": "uint256"
        }
      ],
      "stateMutability": "view",
      "type": "function"
    },
    {
      "inputs": [
        {
          "internalType": "uint256",
          "name": "",
          "type": "uint256"
        }
      ],
      "name": "onSale",
      "outputs": [
        {
          "internalType": "uint256",
          "name": "",
          "type": "uint256"
        }
      ],
      "stateMutability": "view",
      "type": "function"
    },
    {
      "inputs": [
        {
          "internalType": "uint256",
          "name": "tokenId",
          "type": "uint256"
        }
      ],
      "name": "ownerOf",
      "outputs": [
        {
          "internalType": "address",
          "name": "",
          "type": "address"
        }
      ],
      "stateMutability": "view",
      "type": "function"
    },
    {
      "inputs": [],
      "name": "royalty",
      "outputs": [
        {
          "internalType": "uint256",
          "name": "",
          "type": "uint256"
        }
      ],
      "stateMutability": "view",
      "type": "function"
    },
    {
      "inputs": [
        {
          "internalType": "address",
          "name": "from",
          "type": "address"
        },
        {
          "internalType": "address",
          "name": "to",
          "type": "address"
        },
        {
          "internalType": "uint256",
          "name": "tokenId",
          "type": "uint256"
        }
      ],
      "name": "safeTransferFrom",
      "outputs": [],
      "stateMutability": "nonpayable",
      "type": "function"
    },
    {
      "inputs": [
        {
          "internalType": "address",
          "name": "from",
          "type": "address"
        },
        {
          "internalType": "address",
          "name": "to",
          "type": "address"
        },
        {
          "internalType": "uint256",
          "name": "tokenId",
          "type": "uint256"
        },
        {
          "internalType": "bytes",
          "name": "data",
          "type": "bytes"
        }
      ],
      "name": "safeTransferFrom",
      "outputs": [],
      "stateMutability": "nonpayable",
      "type": "function"
    },
    {
      "inputs": [
        {
          "internalType": "address",
          "name": "operator",
          "type": "address"
        },
        {
          "internalType": "bool",
          "name": "approved",
          "type": "bool"
        }
      ],
      "name": "setApprovalForAll",
      "outputs": [],
      "stateMutability": "nonpayable",
      "type": "function"
    },
    {
      "inputs": [
        {
          "internalType": "bytes4",
          "name": "interfaceId",
          "type": "bytes4"
        }
      ],
      "name": "supportsInterface",
      "outputs": [
        {
          "internalType": "bool",
          "name": "",
          "type": "bool"
        }
      ],
      "stateMutability": "view",
      "type": "function"
    },
    {
      "inputs": [],
      "name": "symbol",
      "outputs": [
        {
          "internalType": "string",
          "name": "",
          "type": "string"
        }
      ],
      "stateMutability": "view",
      "type": "function"
    },
    {
      "inputs": [],
      "name": "ticketPrice",
      "outputs": [
        {
          "internalType": "uint256",
          "name": "",
          "type": "uint256"
        }
      ],
      "stateMutability": "view",
      "type": "function"
    },
    {
      "inputs": [],
      "name": "ticketQuantity",
      "outputs": [
        {
          "internalType": "uint256",
          "name": "",
          "type": "uint256"
        }
      ],
      "stateMutability": "view",
      "type": "function"
    },
    {
      "inputs": [
        {
          "internalType": "uint256",
          "name": "tokenId",
          "type": "uint256"
        }
      ],
      "name": "tokenURI",
      "outputs": [
        {
          "internalType": "string",
          "name": "",
          "type": "string"
        }
      ],
      "stateMutability": "view",
      "type": "function"
    },
    {
      "inputs": [
        {
          "internalType": "address",
          "name": "from",
          "type": "address"
        },
        {
          "internalType": "address",
          "name": "to",
          "type": "address"
        },
        {
          "internalType": "uint256",
          "name": "tokenId",
          "type": "uint256"
        }
      ],
      "name": "transferFrom",
      "outputs": [],
      "stateMutability": "nonpayable",
      "type": "function"
    }
  ],
  "bytecode": "0x60806040523480156200001157600080fd5b5060405162001dc838038062001dc88339810160408190526200003491620001b5565b60405180604001604052806006815260200165151a58dad95d60d21b815250604051806040016040528060038152602001621494d360ea1b8152508160009081620000809190620002f1565b5060016200008f8282620002f1565b5060069150620000a290508782620002f1565b506007620000b18682620002f1565b5060088490556009839055600a620000ca8382620002f1565b50600d555050600c80546001600160a01b0319163317905550506001600e5550620003bd565b634e487b7160e01b600052604160045260246000fd5b600082601f8301126200011857600080fd5b81516001600160401b0380821115620001355762000135620000f0565b604051601f8301601f19908116603f01168101908282118183101715620001605762000160620000f0565b816040528381526020925086838588010111156200017d57600080fd5b600091505b83821015620001a1578582018301518183018401529082019062000182565b600093810190920192909252949350505050565b60008060008060008060c08789031215620001cf57600080fd5b86516001600160401b0380821115620001e757600080fd5b620001f58a838b0162000106565b975060208901519150808211156200020c57600080fd5b6200021a8a838b0162000106565b9650604089015195506060890151945060808901519150808211156200023f57600080fd5b506200024e89828a0162000106565b92505060a087015190509295509295509295565b600181811c908216806200027757607f821691505b6020821081036200029857634e487b7160e01b600052602260045260246000fd5b50919050565b601f821115620002ec57600081815260208120601f850160051c81016020861015620002c75750805b601f850160051c820191505b81811015620002e857828155600101620002d3565b5050505b505050565b81516001600160401b038111156200030d576200030d620000f0565b62000325816200031e845462000262565b846200029e565b602080601f8311600181146200035d5760008415620003445750858301515b600019600386901b1c1916600185901b178555620002e8565b600085815260208120601f198616915b828110156200038e578886015182559484019460019091019084016200036d565b5085821015620003ad5787850151600019600388901b60f8161c191681555b5050505050600190811b01905550565b6119fb80620003cd6000396000f3fe6080604052600436106101665760003560e01c806367cedeef116100d1578063b43a76f11161008a578063c7857fb511610064578063c7857fb5146103dd578063c87b56dd146103fd578063e985e9c51461041d578063ec8a06551461043d57600080fd5b8063b43a76f114610387578063b88d4fde146103a7578063c6bc5182146103c757600080fd5b806367cedeef1461030057806370a08231146103155780638043c9c01461033557806395d89b411461034a578063a22cb4651461035f578063a6f2ae3a1461037f57600080fd5b806329ee566c1161012357806329ee566c1461026057806342842e0e146102765780634bfbe5df146102965780634ec82aac146102ab5780635b2f515b146102cb5780636352211e146102e057600080fd5b806301ffc9a71461016b57806306fdde03146101a0578063081812fc146101c2578063095ea7b3146101fa5780631209b1f61461021c57806323b872dd14610240575b600080fd5b34801561017757600080fd5b5061018b6101863660046114cd565b610453565b60405190151581526020015b60405180910390f35b3480156101ac57600080fd5b506101b5610464565b604051610197919061153a565b3480156101ce57600080fd5b506101e26101dd36600461154d565b6104f6565b6040516001600160a01b039091168152602001610197565b34801561020657600080fd5b5061021a610215366004611582565b61051d565b005b34801561022857600080fd5b5061023260085481565b604051908152602001610197565b34801561024c57600080fd5b5061021a61025b3660046115ac565b610637565b34801561026c57600080fd5b50610232600d5481565b34801561028257600080fd5b5061021a6102913660046115ac565b610668565b3480156102a257600080fd5b506101b5610683565b3480156102b757600080fd5b50600c546101e2906001600160a01b031681565b3480156102d757600080fd5b506101b5610711565b3480156102ec57600080fd5b506101e26102fb36600461154d565b61071e565b34801561030c57600080fd5b50610232600081565b34801561032157600080fd5b506102326103303660046115e8565b61077e565b34801561034157600080fd5b506101b5610804565b34801561035657600080fd5b506101b5610811565b34801561036b57600080fd5b5061021a61037a366004611603565b610820565b61021a61082f565b34801561039357600080fd5b506102326103a236600461154d565b610a37565b3480156103b357600080fd5b5061021a6103c2366004611655565b610a58565b3480156103d357600080fd5b50610232600e5481565b3480156103e957600080fd5b5061021a6103f836600461154d565b610a90565b34801561040957600080fd5b506101b561041836600461154d565b610b31565b34801561042957600080fd5b5061018b610438366004611731565b610ba5565b34801561044957600080fd5b5061023260095481565b600061045e82610bd3565b92915050565b60606000805461047390611764565b80601f016020809104026020016040519081016040528092919081815260200182805461049f90611764565b80156104ec5780601f106104c1576101008083540402835291602001916104ec565b820191906000526020600020905b8154815290600101906020018083116104cf57829003601f168201915b5050505050905090565b600061050182610c23565b506000908152600460205260409020546001600160a01b031690565b60006105288261071e565b9050806001600160a01b0316836001600160a01b03160361059a5760405162461bcd60e51b815260206004820152602160248201527f4552433732313a20617070726f76616c20746f2063757272656e74206f776e656044820152603960f91b60648201526084015b60405180910390fd5b336001600160a01b03821614806105b657506105b68133610ba5565b6106285760405162461bcd60e51b815260206004820152603d60248201527f4552433732313a20617070726f76652063616c6c6572206973206e6f7420746f60448201527f6b656e206f776e6572206f7220617070726f76656420666f7220616c6c0000006064820152608401610591565b6106328383610c82565b505050565b6106413382610cf0565b61065d5760405162461bcd60e51b81526004016105919061179e565b610632838383610d4f565b61063283838360405180602001604052806000815250610a58565b6007805461069090611764565b80601f01602080910402602001604051908101604052809291908181526020018280546106bc90611764565b80156107095780601f106106de57610100808354040283529160200191610709565b820191906000526020600020905b8154815290600101906020018083116106ec57829003601f168201915b505050505081565b600a805461069090611764565b6000818152600260205260408120546001600160a01b03168061045e5760405162461bcd60e51b8152602060048201526018602482015277115490cdcc8c4e881a5b9d985b1a59081d1bdad95b88125160421b6044820152606401610591565b60006001600160a01b0382166107e85760405162461bcd60e51b815260206004820152602960248201527f4552433732313a2061646472657373207a65726f206973206e6f7420612076616044820152683634b21037bbb732b960b91b6064820152608401610591565b506001600160a01b031660009081526003602052604090205490565b6006805461069090611764565b60606001805461047390611764565b61082b338383610eb3565b5050565b600060095411806108415750600b5415155b61088d5760405162461bcd60e51b815260206004820152601960248201527f4e6f206d6f7265207469636b65747320617661696c61626c65000000000000006044820152606401610591565b6008543410156108df5760405162461bcd60e51b815260206004820152601760248201527f496e73756666696369656e742066756e64732073656e740000000000000000006044820152606401610591565b600954156109a9576001600960008282546108fa9190611801565b9091555050600c546008546040516001600160a01b039092169181156108fc0291906000818181858888f1935050505015801561093b573d6000803e3d6000fd5b5061094833600e54610f81565b6001600e600082825461095b9190611814565b90915550506008543411156109a75760085433906108fc9061097d9034611801565b6040518115909202916000818181858888f193505050501580156109a5573d6000803e3d6000fd5b505b565b6000600b6000815481106109bf576109bf611827565b906000526020600020015490506109d4610f9b565b600c546001600160a01b03166108fc6109eb611037565b6040518115909202916000818181858888f19350505050158015610a13573d6000803e3d6000fd5b506109a5610a208261071e565b33836040518060200160405280600081525061105a565b600b8181548110610a4757600080fd5b600091825260209091200154905081565b610a623383610cf0565b610a7e5760405162461bcd60e51b81526004016105919061179e565b610a8a8484848461105a565b50505050565b33610a9a8261071e565b6001600160a01b031614610afc5760405162461bcd60e51b8152602060048201526024808201527f596f7520617265206e6f7420746865206f776e6572206f66207468697320746960448201526318dad95d60e21b6064820152608401610591565b600b80546001810182556000919091527f0175b7a638427703f0dbe7bb9bbf987a2551717b34e79f33b5b1008d1fa01db90155565b6060610b3c82610c23565b6000610b5360408051602081019091526000815290565b90506000815111610b735760405180602001604052806000815250610b9e565b80610b7d8461108d565b604051602001610b8e92919061183d565b6040516020818303038152906040525b9392505050565b6001600160a01b03918216600090815260056020908152604080832093909416825291909152205460ff1690565b60006001600160e01b031982166380ac58cd60e01b1480610c0457506001600160e01b03198216635b5e139f60e01b145b8061045e57506301ffc9a760e01b6001600160e01b031983161461045e565b6000818152600260205260409020546001600160a01b03166109a55760405162461bcd60e51b8152602060048201526018602482015277115490cdcc8c4e881a5b9d985b1a59081d1bdad95b88125160421b6044820152606401610591565b600081815260046020526040902080546001600160a01b0319166001600160a01b0384169081179091558190610cb78261071e565b6001600160a01b03167f8c5be1e5ebec7d5bd14f71427d1e84f3dd0314c0f7b2291e5b200ac8c7c3b92560405160405180910390a45050565b600080610cfc8361071e565b9050806001600160a01b0316846001600160a01b03161480610d235750610d238185610ba5565b80610d475750836001600160a01b0316610d3c846104f6565b6001600160a01b0316145b949350505050565b826001600160a01b0316610d628261071e565b6001600160a01b031614610d885760405162461bcd60e51b81526004016105919061186c565b6001600160a01b038216610dea5760405162461bcd60e51b8152602060048201526024808201527f4552433732313a207472616e7366657220746f20746865207a65726f206164646044820152637265737360e01b6064820152608401610591565b826001600160a01b0316610dfd8261071e565b6001600160a01b031614610e235760405162461bcd60e51b81526004016105919061186c565b600081815260046020908152604080832080546001600160a01b03199081169091556001600160a01b0387811680865260038552838620805460001901905590871680865283862080546001019055868652600290945282852080549092168417909155905184937fddf252ad1be2c89b69c2b068fc378daa952ba7f163c4a11628f55a4df523b3ef91a4505050565b816001600160a01b0316836001600160a01b031603610f145760405162461bcd60e51b815260206004820152601960248201527f4552433732313a20617070726f766520746f2063616c6c6572000000000000006044820152606401610591565b6001600160a01b03838116600081815260056020908152604080832094871680845294825291829020805460ff191686151590811790915591519182527f17307eab39ab6107e8899845ad3d59bd9653f200f220920489ca2b5937696c31910160405180910390a3505050565b61082b828260405180602001604052806000815250611120565b60005b600b54610fad90600190611801565b81101561100d57600b610fc1826001611814565b81548110610fd157610fd1611827565b9060005260206000200154600b8281548110610fef57610fef611827565b60009182526020909120015580611005816118b1565b915050610f9e565b50600b80548061101f5761101f6118ca565b60019003818190600052602060002001600090559055565b60006064600d5460085461104b91906118e0565b61105591906118f7565b905090565b611065848484610d4f565b61107184848484611153565b610a8a5760405162461bcd60e51b815260040161059190611919565b6060600061109a83611254565b600101905060008167ffffffffffffffff8111156110ba576110ba61163f565b6040519080825280601f01601f1916602001820160405280156110e4576020820181803683370190505b5090508181016020015b600019016f181899199a1a9b1b9c1cb0b131b232b360811b600a86061a8153600a85049450846110ee57509392505050565b61112a838361132c565b6111376000848484611153565b6106325760405162461bcd60e51b815260040161059190611919565b60006001600160a01b0384163b1561124957604051630a85bd0160e11b81526001600160a01b0385169063150b7a029061119790339089908890889060040161196b565b6020604051808303816000875af19250505080156111d2575060408051601f3d908101601f191682019092526111cf918101906119a8565b60015b61122f573d808015611200576040519150601f19603f3d011682016040523d82523d6000602084013e611205565b606091505b5080516000036112275760405162461bcd60e51b815260040161059190611919565b805181602001fd5b6001600160e01b031916630a85bd0160e11b149050610d47565b506001949350505050565b60008072184f03e93ff9f4daa797ed6e38ed64bf6a1f0160401b83106112935772184f03e93ff9f4daa797ed6e38ed64bf6a1f0160401b830492506040015b6d04ee2d6d415b85acef810000000083106112bf576d04ee2d6d415b85acef8100000000830492506020015b662386f26fc1000083106112dd57662386f26fc10000830492506010015b6305f5e10083106112f5576305f5e100830492506008015b612710831061130957612710830492506004015b6064831061131b576064830492506002015b600a831061045e5760010192915050565b6001600160a01b0382166113825760405162461bcd60e51b815260206004820181905260248201527f4552433732313a206d696e7420746f20746865207a65726f20616464726573736044820152606401610591565b6000818152600260205260409020546001600160a01b0316156113e75760405162461bcd60e51b815260206004820152601c60248201527f4552433732313a20746f6b656e20616c7265616479206d696e746564000000006044820152606401610591565b6000818152600260205260409020546001600160a01b03161561144c5760405162461bcd60e51b815260206004820152601c60248201527f4552433732313a20746f6b656e20616c7265616479206d696e746564000000006044820152606401610591565b6001600160a01b038216600081815260036020908152604080832080546001019055848352600290915280822080546001600160a01b0319168417905551839291907fddf252ad1be2c89b69c2b068fc378daa952ba7f163c4a11628f55a4df523b3ef908290a45050565b6001600160e01b0319811681146109a557600080fd5b6000602082840312156114df57600080fd5b8135610b9e816114b7565b60005b838110156115055781810151838201526020016114ed565b50506000910152565b600081518084526115268160208601602086016114ea565b601f01601f19169290920160200192915050565b602081526000610b9e602083018461150e565b60006020828403121561155f57600080fd5b5035919050565b80356001600160a01b038116811461157d57600080fd5b919050565b6000806040838503121561159557600080fd5b61159e83611566565b946020939093013593505050565b6000806000606084860312156115c157600080fd5b6115ca84611566565b92506115d860208501611566565b9150604084013590509250925092565b6000602082840312156115fa57600080fd5b610b9e82611566565b6000806040838503121561161657600080fd5b61161f83611566565b91506020830135801515811461163457600080fd5b809150509250929050565b634e487b7160e01b600052604160045260246000fd5b6000806000806080858703121561166b57600080fd5b61167485611566565b935061168260208601611566565b925060408501359150606085013567ffffffffffffffff808211156116a657600080fd5b818701915087601f8301126116ba57600080fd5b8135818111156116cc576116cc61163f565b604051601f8201601f19908116603f011681019083821181831017156116f4576116f461163f565b816040528281528a602084870101111561170d57600080fd5b82602086016020830137600060208483010152809550505050505092959194509250565b6000806040838503121561174457600080fd5b61174d83611566565b915061175b60208401611566565b90509250929050565b600181811c9082168061177857607f821691505b60208210810361179857634e487b7160e01b600052602260045260246000fd5b50919050565b6020808252602d908201527f4552433732313a2063616c6c6572206973206e6f7420746f6b656e206f776e6560408201526c1c881bdc88185c1c1c9bdd9959609a1b606082015260800190565b634e487b7160e01b600052601160045260246000fd5b8181038181111561045e5761045e6117eb565b8082018082111561045e5761045e6117eb565b634e487b7160e01b600052603260045260246000fd5b6000835161184f8184602088016114ea565b8351908301906118638183602088016114ea565b01949350505050565b60208082526025908201527f4552433732313a207472616e736665722066726f6d20696e636f72726563742060408201526437bbb732b960d91b606082015260800190565b6000600182016118c3576118c36117eb565b5060010190565b634e487b7160e01b600052603160045260246000fd5b808202811582820484141761045e5761045e6117eb565b60008261191457634e487b7160e01b600052601260045260246000fd5b500490565b60208082526032908201527f4552433732313a207472616e7366657220746f206e6f6e20455243373231526560408201527131b2b4bb32b91034b6b83632b6b2b73a32b960711b606082015260800190565b6001600160a01b038581168252841660208201526040810183905260806060820181905260009061199e9083018461150e565b9695505050505050565b6000602082840312156119ba57600080fd5b8151610b9e816114b756fea2646970667358221220663e0f399c9d8823facc1fc3cb1d2b57ddb2c7d75926d06b33642624d7ef8e0f64736f6c63430008110033",
  "linkReferences": {},
  "deployedLinkReferences": {}
}