{
  "_format": "hh-sol-artifact-1",
  "contractName": "Ticket",
  "sourceName": "contracts/Event.sol",
  "abi": [
    {
      "inputs": [
        {
          "internalType": "string",
          "name": "_eventName",
          "type": "string"
        },
        {
          "internalType": "string",
          "name": "_eventDate",
          "type": "string"
        },
        {
          "internalType": "uint256",
          "name": "_ticketPrice",
          "type": "uint256"
        },
        {
          "internalType": "uint256",
          "name": "_ticketQuantity",
          "type": "uint256"
        },
        {
          "internalType": "string",
          "name": "_artistName",
          "type": "string"
        },
        {
          "internalType": "uint256",
          "name": "_royalty",
          "type": "uint256"
        }
      ],
      "stateMutability": "nonpayable",
      "type": "constructor"
    },
    {
      "anonymous": false,
      "inputs": [
        {
          "indexed": true,
          "internalType": "address",
          "name": "owner",
          "type": "address"
        },
        {
          "indexed": true,
          "internalType": "address",
          "name": "approved",
          "type": "address"
        },
        {
          "indexed": true,
          "internalType": "uint256",
          "name": "tokenId",
          "type": "uint256"
        }
      ],
      "name": "Approval",
      "type": "event"
    },
    {
      "anonymous": false,
      "inputs": [
        {
          "indexed": true,
          "internalType": "address",
          "name": "owner",
          "type": "address"
        },
        {
          "indexed": true,
          "internalType": "address",
          "name": "operator",
          "type": "address"
        },
        {
          "indexed": false,
          "internalType": "bool",
          "name": "approved",
          "type": "bool"
        }
      ],
      "name": "ApprovalForAll",
      "type": "event"
    },
    {
      "anonymous": false,
      "inputs": [
        {
          "indexed": true,
          "internalType": "address",
          "name": "from",
          "type": "address"
        },
        {
          "indexed": true,
          "internalType": "address",
          "name": "to",
          "type": "address"
        },
        {
          "indexed": true,
          "internalType": "uint256",
          "name": "tokenId",
          "type": "uint256"
        }
      ],
      "name": "Transfer",
      "type": "event"
    },
    {
      "inputs": [],
      "name": "TYPE1",
      "outputs": [
        {
          "internalType": "uint256",
          "name": "",
          "type": "uint256"
        }
      ],
      "stateMutability": "view",
      "type": "function"
    },
    {
      "inputs": [
        {
          "internalType": "address",
          "name": "to",
          "type": "address"
        },
        {
          "internalType": "uint256",
          "name": "tokenId",
          "type": "uint256"
        }
      ],
      "name": "approve",
      "outputs": [],
      "stateMutability": "nonpayable",
      "type": "function"
    },
    {
      "inputs": [],
      "name": "artistName",
      "outputs": [
        {
          "internalType": "string",
          "name": "",
          "type": "string"
        }
      ],
      "stateMutability": "view",
      "type": "function"
    },
    {
      "inputs": [
        {
          "internalType": "address",
          "name": "owner",
          "type": "address"
        }
      ],
      "name": "balanceOf",
      "outputs": [
        {
          "internalType": "uint256",
          "name": "",
          "type": "uint256"
        }
      ],
      "stateMutability": "view",
      "type": "function"
    },
    {
      "inputs": [
        {
          "internalType": "uint256",
          "name": "nftId",
          "type": "uint256"
        }
      ],
      "name": "buy",
      "outputs": [],
      "stateMutability": "payable",
      "type": "function"
    },
    {
      "inputs": [],
      "name": "eventCreator",
      "outputs": [
        {
          "internalType": "address",
          "name": "",
          "type": "address"
        }
      ],
      "stateMutability": "view",
      "type": "function"
    },
    {
      "inputs": [],
      "name": "eventDate",
      "outputs": [
        {
          "internalType": "string",
          "name": "",
          "type": "string"
        }
      ],
      "stateMutability": "view",
      "type": "function"
    },
    {
      "inputs": [],
      "name": "eventName",
      "outputs": [
        {
          "internalType": "string",
          "name": "",
          "type": "string"
        }
      ],
      "stateMutability": "view",
      "type": "function"
    },
    {
      "inputs": [
        {
          "internalType": "uint256",
          "name": "tokenId",
          "type": "uint256"
        }
      ],
      "name": "getApproved",
      "outputs": [
        {
          "internalType": "address",
          "name": "",
          "type": "address"
        }
      ],
      "stateMutability": "view",
      "type": "function"
    },
    {
      "inputs": [
        {
          "internalType": "address",
          "name": "owner",
          "type": "address"
        },
        {
          "internalType": "address",
          "name": "operator",
          "type": "address"
        }
      ],
      "name": "isApprovedForAll",
      "outputs": [
        {
          "internalType": "bool",
          "name": "",
          "type": "bool"
        }
      ],
      "stateMutability": "view",
      "type": "function"
    },
    {
      "inputs": [
        {
          "internalType": "uint256",
          "name": "nftId",
          "type": "uint256"
        }
      ],
      "name": "listForSale",
      "outputs": [],
      "stateMutability": "nonpayable",
      "type": "function"
    },
    {
      "inputs": [],
      "name": "name",
      "outputs": [
        {
          "internalType": "string",
          "name": "",
          "type": "string"
        }
      ],
      "stateMutability": "view",
      "type": "function"
    },
    {
      "inputs": [
        {
          "internalType": "uint256",
          "name": "",
          "type": "uint256"
        }
      ],
      "name": "onSale",
      "outputs": [
        {
          "internalType": "uint256",
          "name": "",
          "type": "uint256"
        }
      ],
      "stateMutability": "view",
      "type": "function"
    },
    {
      "inputs": [
        {
          "internalType": "uint256",
          "name": "tokenId",
          "type": "uint256"
        }
      ],
      "name": "ownerOf",
      "outputs": [
        {
          "internalType": "address",
          "name": "",
          "type": "address"
        }
      ],
      "stateMutability": "view",
      "type": "function"
    },
    {
      "inputs": [],
      "name": "royalty",
      "outputs": [
        {
          "internalType": "uint256",
          "name": "",
          "type": "uint256"
        }
      ],
      "stateMutability": "view",
      "type": "function"
    },
    {
      "inputs": [
        {
          "internalType": "address",
          "name": "from",
          "type": "address"
        },
        {
          "internalType": "address",
          "name": "to",
          "type": "address"
        },
        {
          "internalType": "uint256",
          "name": "tokenId",
          "type": "uint256"
        }
      ],
      "name": "safeTransferFrom",
      "outputs": [],
      "stateMutability": "nonpayable",
      "type": "function"
    },
    {
      "inputs": [
        {
          "internalType": "address",
          "name": "from",
          "type": "address"
        },
        {
          "internalType": "address",
          "name": "to",
          "type": "address"
        },
        {
          "internalType": "uint256",
          "name": "tokenId",
          "type": "uint256"
        },
        {
          "internalType": "bytes",
          "name": "data",
          "type": "bytes"
        }
      ],
      "name": "safeTransferFrom",
      "outputs": [],
      "stateMutability": "nonpayable",
      "type": "function"
    },
    {
      "inputs": [
        {
          "internalType": "address",
          "name": "operator",
          "type": "address"
        },
        {
          "internalType": "bool",
          "name": "approved",
          "type": "bool"
        }
      ],
      "name": "setApprovalForAll",
      "outputs": [],
      "stateMutability": "nonpayable",
      "type": "function"
    },
    {
      "inputs": [
        {
          "internalType": "bytes4",
          "name": "interfaceId",
          "type": "bytes4"
        }
      ],
      "name": "supportsInterface",
      "outputs": [
        {
          "internalType": "bool",
          "name": "",
          "type": "bool"
        }
      ],
      "stateMutability": "view",
      "type": "function"
    },
    {
      "inputs": [],
      "name": "symbol",
      "outputs": [
        {
          "internalType": "string",
          "name": "",
          "type": "string"
        }
      ],
      "stateMutability": "view",
      "type": "function"
    },
    {
      "inputs": [],
      "name": "ticketPrice",
      "outputs": [
        {
          "internalType": "uint256",
          "name": "",
          "type": "uint256"
        }
      ],
      "stateMutability": "view",
      "type": "function"
    },
    {
      "inputs": [],
      "name": "ticketQuantity",
      "outputs": [
        {
          "internalType": "uint256",
          "name": "",
          "type": "uint256"
        }
      ],
      "stateMutability": "view",
      "type": "function"
    },
    {
      "inputs": [
        {
          "internalType": "uint256",
          "name": "tokenId",
          "type": "uint256"
        }
      ],
      "name": "tokenURI",
      "outputs": [
        {
          "internalType": "string",
          "name": "",
          "type": "string"
        }
      ],
      "stateMutability": "view",
      "type": "function"
    },
    {
      "inputs": [
        {
          "internalType": "address",
          "name": "from",
          "type": "address"
        },
        {
          "internalType": "address",
          "name": "to",
          "type": "address"
        },
        {
          "internalType": "uint256",
          "name": "tokenId",
          "type": "uint256"
        }
      ],
      "name": "transferFrom",
      "outputs": [],
      "stateMutability": "nonpayable",
      "type": "function"
    }
  ],
  "bytecode": "0x60806040523480156200001157600080fd5b5060405162001dcd38038062001dcd8339810160408190526200003491620001b1565b60405180604001604052806006815260200165151a58dad95d60d21b815250604051806040016040528060038152602001621494d360ea1b8152508160009081620000809190620002ed565b5060016200008f8282620002ed565b5060069150620000a290508782620002ed565b506007620000b18682620002ed565b5060088490556009839055600a620000ca8382620002ed565b50600d555050600c80546001600160a01b0319163317905550620003b9915050565b634e487b7160e01b600052604160045260246000fd5b600082601f8301126200011457600080fd5b81516001600160401b0380821115620001315762000131620000ec565b604051601f8301601f19908116603f011681019082821181831017156200015c576200015c620000ec565b816040528381526020925086838588010111156200017957600080fd5b600091505b838210156200019d57858201830151818301840152908201906200017e565b600093810190920192909252949350505050565b60008060008060008060c08789031215620001cb57600080fd5b86516001600160401b0380821115620001e357600080fd5b620001f18a838b0162000102565b975060208901519150808211156200020857600080fd5b620002168a838b0162000102565b9650604089015195506060890151945060808901519150808211156200023b57600080fd5b506200024a89828a0162000102565b92505060a087015190509295509295509295565b600181811c908216806200027357607f821691505b6020821081036200029457634e487b7160e01b600052602260045260246000fd5b50919050565b601f821115620002e857600081815260208120601f850160051c81016020861015620002c35750805b601f850160051c820191505b81811015620002e457828155600101620002cf565b5050505b505050565b81516001600160401b03811115620003095762000309620000ec565b62000321816200031a84546200025e565b846200029a565b602080601f831160018114620003595760008415620003405750858301515b600019600386901b1c1916600185901b178555620002e4565b600085815260208120601f198616915b828110156200038a5788860151825594840194600190910190840162000369565b5085821015620003a95787850151600019600388901b60f8161c191681555b5050505050600190811b01905550565b611a0480620003c96000396000f3fe60806040526004361061014b5760003560e01c806367cedeef116100b6578063b88d4fde1161006f578063b88d4fde14610384578063c7857fb5146103a4578063c87b56dd146103c4578063d96a094a146103e4578063e985e9c5146103f7578063ec8a06551461041757600080fd5b806367cedeef146102e557806370a08231146102fa5780638043c9c01461031a57806395d89b411461032f578063a22cb46514610344578063b43a76f11461036457600080fd5b806329ee566c1161010857806329ee566c1461024557806342842e0e1461025b5780634bfbe5df1461027b5780634ec82aac146102905780635b2f515b146102b05780636352211e146102c557600080fd5b806301ffc9a71461015057806306fdde0314610185578063081812fc146101a7578063095ea7b3146101df5780631209b1f61461020157806323b872dd14610225575b600080fd5b34801561015c57600080fd5b5061017061016b3660046114d6565b61042d565b60405190151581526020015b60405180910390f35b34801561019157600080fd5b5061019a61043e565b60405161017c9190611543565b3480156101b357600080fd5b506101c76101c2366004611556565b6104d0565b6040516001600160a01b03909116815260200161017c565b3480156101eb57600080fd5b506101ff6101fa36600461158b565b6104f7565b005b34801561020d57600080fd5b5061021760085481565b60405190815260200161017c565b34801561023157600080fd5b506101ff6102403660046115b5565b610611565b34801561025157600080fd5b50610217600d5481565b34801561026757600080fd5b506101ff6102763660046115b5565b610642565b34801561028757600080fd5b5061019a61065d565b34801561029c57600080fd5b50600c546101c7906001600160a01b031681565b3480156102bc57600080fd5b5061019a6106eb565b3480156102d157600080fd5b506101c76102e0366004611556565b6106f8565b3480156102f157600080fd5b50610217600081565b34801561030657600080fd5b506102176103153660046115f1565b610758565b34801561032657600080fd5b5061019a6107de565b34801561033b57600080fd5b5061019a6107eb565b34801561035057600080fd5b506101ff61035f36600461160c565b6107fa565b34801561037057600080fd5b5061021761037f366004611556565b610809565b34801561039057600080fd5b506101ff61039f36600461165e565b61082a565b3480156103b057600080fd5b506101ff6103bf366004611556565b610862565b3480156103d057600080fd5b5061019a6103df366004611556565b610951565b6101ff6103f2366004611556565b6109c5565b34801561040357600080fd5b5061017061041236600461173a565b610bae565b34801561042357600080fd5b5061021760095481565b600061043882610bdc565b92915050565b60606000805461044d9061176d565b80601f01602080910402602001604051908101604052809291908181526020018280546104799061176d565b80156104c65780601f1061049b576101008083540402835291602001916104c6565b820191906000526020600020905b8154815290600101906020018083116104a957829003601f168201915b5050505050905090565b60006104db82610c2c565b506000908152600460205260409020546001600160a01b031690565b6000610502826106f8565b9050806001600160a01b0316836001600160a01b0316036105745760405162461bcd60e51b815260206004820152602160248201527f4552433732313a20617070726f76616c20746f2063757272656e74206f776e656044820152603960f91b60648201526084015b60405180910390fd5b336001600160a01b038216148061059057506105908133610bae565b6106025760405162461bcd60e51b815260206004820152603d60248201527f4552433732313a20617070726f76652063616c6c6572206973206e6f7420746f60448201527f6b656e206f776e6572206f7220617070726f76656420666f7220616c6c000000606482015260840161056b565b61060c8383610c8b565b505050565b61061b3382610cf9565b6106375760405162461bcd60e51b815260040161056b906117a7565b61060c838383610d58565b61060c8383836040518060200160405280600081525061082a565b6007805461066a9061176d565b80601f01602080910402602001604051908101604052809291908181526020018280546106969061176d565b80156106e35780601f106106b8576101008083540402835291602001916106e3565b820191906000526020600020905b8154815290600101906020018083116106c657829003601f168201915b505050505081565b600a805461066a9061176d565b6000818152600260205260408120546001600160a01b0316806104385760405162461bcd60e51b8152602060048201526018602482015277115490cdcc8c4e881a5b9d985b1a59081d1bdad95b88125160421b604482015260640161056b565b60006001600160a01b0382166107c25760405162461bcd60e51b815260206004820152602960248201527f4552433732313a2061646472657373207a65726f206973206e6f7420612076616044820152683634b21037bbb732b960b91b606482015260840161056b565b506001600160a01b031660009081526003602052604090205490565b6006805461066a9061176d565b60606001805461044d9061176d565b610805338383610ebc565b5050565b600b818154811061081957600080fd5b600091825260209091200154905081565b6108343383610cf9565b6108505760405162461bcd60e51b815260040161056b906117a7565b61085c84848484610f8a565b50505050565b3361086c826106f8565b6001600160a01b0316146108ce5760405162461bcd60e51b8152602060048201526024808201527f596f7520617265206e6f7420746865206f776e6572206f66207468697320746960448201526318dad95d60e21b606482015260840161056b565b60006009541161091c5760405162461bcd60e51b81526020600482015260196024820152784e6f206d6f7265207469636b65747320617661696c61626c6560381b604482015260640161056b565b600b80546001810182556000919091527f0175b7a638427703f0dbe7bb9bbf987a2551717b34e79f33b5b1008d1fa01db90155565b606061095c82610c2c565b600061097360408051602081019091526000815290565b9050600081511161099357604051806020016040528060008152506109be565b8061099d84610fbd565b6040516020016109ae9291906117f4565b6040516020818303038152906040525b9392505050565b600060095411806109d75750600b5415155b610a1f5760405162461bcd60e51b81526020600482015260196024820152784e6f206d6f7265207469636b65747320617661696c61626c6560381b604482015260640161056b565b600854341015610a715760405162461bcd60e51b815260206004820152601760248201527f496e73756666696369656e742066756e64732073656e74000000000000000000604482015260640161056b565b60095415610b2057600160096000828254610a8c9190611839565b9091555050600c546008546040516001600160a01b039092169181156108fc0291906000818181858888f19350505050158015610acd573d6000803e3d6000fd5b50610ad83382611050565b600854341115610b1d5760085433906108fc90610af59034611839565b6040518115909202916000818181858888f19350505050158015610805573d6000803e3d6000fd5b50565b6000600b600081548110610b3657610b3661184c565b90600052602060002001549050610b4b61106a565b600c546001600160a01b03166108fc610b62611106565b6040518115909202916000818181858888f19350505050158015610b8a573d6000803e3d6000fd5b50610805610b97826106f8565b338360405180602001604052806000815250610f8a565b6001600160a01b03918216600090815260056020908152604080832093909416825291909152205460ff1690565b60006001600160e01b031982166380ac58cd60e01b1480610c0d57506001600160e01b03198216635b5e139f60e01b145b8061043857506301ffc9a760e01b6001600160e01b0319831614610438565b6000818152600260205260409020546001600160a01b0316610b1d5760405162461bcd60e51b8152602060048201526018602482015277115490cdcc8c4e881a5b9d985b1a59081d1bdad95b88125160421b604482015260640161056b565b600081815260046020526040902080546001600160a01b0319166001600160a01b0384169081179091558190610cc0826106f8565b6001600160a01b03167f8c5be1e5ebec7d5bd14f71427d1e84f3dd0314c0f7b2291e5b200ac8c7c3b92560405160405180910390a45050565b600080610d05836106f8565b9050806001600160a01b0316846001600160a01b03161480610d2c5750610d2c8185610bae565b80610d505750836001600160a01b0316610d45846104d0565b6001600160a01b0316145b949350505050565b826001600160a01b0316610d6b826106f8565b6001600160a01b031614610d915760405162461bcd60e51b815260040161056b90611862565b6001600160a01b038216610df35760405162461bcd60e51b8152602060048201526024808201527f4552433732313a207472616e7366657220746f20746865207a65726f206164646044820152637265737360e01b606482015260840161056b565b826001600160a01b0316610e06826106f8565b6001600160a01b031614610e2c5760405162461bcd60e51b815260040161056b90611862565b600081815260046020908152604080832080546001600160a01b03199081169091556001600160a01b0387811680865260038552838620805460001901905590871680865283862080546001019055868652600290945282852080549092168417909155905184937fddf252ad1be2c89b69c2b068fc378daa952ba7f163c4a11628f55a4df523b3ef91a4505050565b816001600160a01b0316836001600160a01b031603610f1d5760405162461bcd60e51b815260206004820152601960248201527f4552433732313a20617070726f766520746f2063616c6c657200000000000000604482015260640161056b565b6001600160a01b03838116600081815260056020908152604080832094871680845294825291829020805460ff191686151590811790915591519182527f17307eab39ab6107e8899845ad3d59bd9653f200f220920489ca2b5937696c31910160405180910390a3505050565b610f95848484610d58565b610fa184848484611129565b61085c5760405162461bcd60e51b815260040161056b906118a7565b60606000610fca8361122a565b600101905060008167ffffffffffffffff811115610fea57610fea611648565b6040519080825280601f01601f191660200182016040528015611014576020820181803683370190505b5090508181016020015b600019016f181899199a1a9b1b9c1cb0b131b232b360811b600a86061a8153600a850494508461101e57509392505050565b610805828260405180602001604052806000815250611302565b60005b600b5461107c90600190611839565b8110156110dc57600b6110908260016118f9565b815481106110a0576110a061184c565b9060005260206000200154600b82815481106110be576110be61184c565b600091825260209091200155806110d48161190c565b91505061106d565b50600b8054806110ee576110ee611925565b60019003818190600052602060002001600090559055565b60006064600d5460085461111a919061193b565b6111249190611952565b905090565b60006001600160a01b0384163b1561121f57604051630a85bd0160e11b81526001600160a01b0385169063150b7a029061116d903390899088908890600401611974565b6020604051808303816000875af19250505080156111a8575060408051601f3d908101601f191682019092526111a5918101906119b1565b60015b611205573d8080156111d6576040519150601f19603f3d011682016040523d82523d6000602084013e6111db565b606091505b5080516000036111fd5760405162461bcd60e51b815260040161056b906118a7565b805181602001fd5b6001600160e01b031916630a85bd0160e11b149050610d50565b506001949350505050565b60008072184f03e93ff9f4daa797ed6e38ed64bf6a1f0160401b83106112695772184f03e93ff9f4daa797ed6e38ed64bf6a1f0160401b830492506040015b6d04ee2d6d415b85acef81000000008310611295576d04ee2d6d415b85acef8100000000830492506020015b662386f26fc1000083106112b357662386f26fc10000830492506010015b6305f5e10083106112cb576305f5e100830492506008015b61271083106112df57612710830492506004015b606483106112f1576064830492506002015b600a83106104385760010192915050565b61130c8383611335565b6113196000848484611129565b61060c5760405162461bcd60e51b815260040161056b906118a7565b6001600160a01b03821661138b5760405162461bcd60e51b815260206004820181905260248201527f4552433732313a206d696e7420746f20746865207a65726f2061646472657373604482015260640161056b565b6000818152600260205260409020546001600160a01b0316156113f05760405162461bcd60e51b815260206004820152601c60248201527f4552433732313a20746f6b656e20616c7265616479206d696e74656400000000604482015260640161056b565b6000818152600260205260409020546001600160a01b0316156114555760405162461bcd60e51b815260206004820152601c60248201527f4552433732313a20746f6b656e20616c7265616479206d696e74656400000000604482015260640161056b565b6001600160a01b038216600081815260036020908152604080832080546001019055848352600290915280822080546001600160a01b0319168417905551839291907fddf252ad1be2c89b69c2b068fc378daa952ba7f163c4a11628f55a4df523b3ef908290a45050565b6001600160e01b031981168114610b1d57600080fd5b6000602082840312156114e857600080fd5b81356109be816114c0565b60005b8381101561150e5781810151838201526020016114f6565b50506000910152565b6000815180845261152f8160208601602086016114f3565b601f01601f19169290920160200192915050565b6020815260006109be6020830184611517565b60006020828403121561156857600080fd5b5035919050565b80356001600160a01b038116811461158657600080fd5b919050565b6000806040838503121561159e57600080fd5b6115a78361156f565b946020939093013593505050565b6000806000606084860312156115ca57600080fd5b6115d38461156f565b92506115e16020850161156f565b9150604084013590509250925092565b60006020828403121561160357600080fd5b6109be8261156f565b6000806040838503121561161f57600080fd5b6116288361156f565b91506020830135801515811461163d57600080fd5b809150509250929050565b634e487b7160e01b600052604160045260246000fd5b6000806000806080858703121561167457600080fd5b61167d8561156f565b935061168b6020860161156f565b925060408501359150606085013567ffffffffffffffff808211156116af57600080fd5b818701915087601f8301126116c357600080fd5b8135818111156116d5576116d5611648565b604051601f8201601f19908116603f011681019083821181831017156116fd576116fd611648565b816040528281528a602084870101111561171657600080fd5b82602086016020830137600060208483010152809550505050505092959194509250565b6000806040838503121561174d57600080fd5b6117568361156f565b91506117646020840161156f565b90509250929050565b600181811c9082168061178157607f821691505b6020821081036117a157634e487b7160e01b600052602260045260246000fd5b50919050565b6020808252602d908201527f4552433732313a2063616c6c6572206973206e6f7420746f6b656e206f776e6560408201526c1c881bdc88185c1c1c9bdd9959609a1b606082015260800190565b600083516118068184602088016114f3565b83519083019061181a8183602088016114f3565b01949350505050565b634e487b7160e01b600052601160045260246000fd5b8181038181111561043857610438611823565b634e487b7160e01b600052603260045260246000fd5b60208082526025908201527f4552433732313a207472616e736665722066726f6d20696e636f72726563742060408201526437bbb732b960d91b606082015260800190565b60208082526032908201527f4552433732313a207472616e7366657220746f206e6f6e20455243373231526560408201527131b2b4bb32b91034b6b83632b6b2b73a32b960711b606082015260800190565b8082018082111561043857610438611823565b60006001820161191e5761191e611823565b5060010190565b634e487b7160e01b600052603160045260246000fd5b808202811582820484141761043857610438611823565b60008261196f57634e487b7160e01b600052601260045260246000fd5b500490565b6001600160a01b03858116825284166020820152604081018390526080606082018190526000906119a790830184611517565b9695505050505050565b6000602082840312156119c357600080fd5b81516109be816114c056fea26469706673582212204078029e358652ffbd51d23ee4214fe24c40f15c024253b9333d20bfb9a6c45264736f6c63430008110033",
  "linkReferences": {},
  "deployedLinkReferences": {}
}